{
  "_format": "hh-sol-artifact-1",
  "contractName": "gasChallenge",
  "sourceName": "contracts/gasChallenge.sol",
  "abi": [
    {
      "inputs": [],
      "name": "getSumOfArray",
      "outputs": [
        {
          "internalType": "uint256",
          "name": "",
          "type": "uint256"
        }
      ],
      "stateMutability": "view",
      "type": "function"
    },
    {
      "inputs": [],
      "name": "notOptimizedFunction",
      "outputs": [],
      "stateMutability": "nonpayable",
      "type": "function"
    },
    {
      "inputs": [],
      "name": "optimizedFunction",
      "outputs": [],
      "stateMutability": "nonpayable",
      "type": "function"
    }
  ],
  "bytecode": "0x6080604052604051806101400160405280600160ff168152602001600260ff168152602001600360ff168152602001600460ff168152602001600560ff168152602001600660ff168152602001600760ff168152602001600860ff168152602001600960ff168152602001600a60ff16815250600090600a610082929190610095565b5034801561008f57600080fd5b5061014c565b82600a601f0160209004810192821561011e5791602002820160005b838211156100ef57835183826101000a81548160ff021916908360ff16021790555092602001926001016020816000010492830192600103026100b1565b801561011c5782816101000a81549060ff02191690556001016020816000010492830192600103026100ef565b505b50905061012b919061012f565b5090565b5b80821115610148576000816000905550600101610130565b5090565b6102748061015b6000396000f3fe608060405234801561001057600080fd5b50600436106100415760003560e01c806368b5f223146100465780637ce418941461005057806380d2c8031461005a575b600080fd5b61004e610078565b005b6100586100cf565b005b61006261015a565b60405161006f919061017d565b60405180910390f35b60005b600a8110156100cc5760008082600a811061009957610098610198565b5b602091828204019190066101000a81548160ff021916908360ff16021790555080806100c4906101f6565b91505061007b565b50565b6000805b600a81101561014f5760008082600a81106100f1576100f0610198565b5b602091828204019190066101000a81548160ff021916908360ff160217905550600081600a811061012557610124610198565b5b602091828204019190069054906101000a900460ff1660ff168201915080806001019150506100d3565b508060018190555050565b6000600154905090565b6000819050919050565b61017781610164565b82525050565b6000602082019050610192600083018461016e565b92915050565b7f4e487b7100000000000000000000000000000000000000000000000000000000600052603260045260246000fd5b7f4e487b7100000000000000000000000000000000000000000000000000000000600052601160045260246000fd5b600061020182610164565b91507fffffffffffffffffffffffffffffffffffffffffffffffffffffffffffffffff8203610233576102326101c7565b5b60018201905091905056fea26469706673582212202c289152321b0e5381afd2e3a31d434bd16d14ebe8498db131b4b76ed552b62d64736f6c63430008120033",
  "linkReferences": {},
  "deployedLinkReferences": {}
}